:020000040000FA
:02000000512885
:040002000034003492
:08000800FD000308FE000A08D8
:10001000FF000B1D0E280B1112210E217F088A00F4
:100020007E088300FD0E7D0E0900820701340A342C
:100030000C34143416341E34203428342A34323428
:1000400034343C343E3446344834503452345A34D8
:100050005C3482070234073404340C340834193415
:1000600010343034203461344034C034803481342E
:10007000003400340034013400348207003400348A
:1000800000340034003400340034003400340034D0
:1000900000340034003401340134033402340634B3
:1000A000043423008C0121008C01210001309500D3
:1000B0000E212000A0308B003030F3004530F200DC
:1000C000A701A801AB01A901AA01AC01AD01AF01D3
:1000D000B001AE01F00B6A288030F000F10B6A2805
:1000E0001030F100812076208F206A28730D73066E
:1000F000F30E720E7306F30E0139F20DF206F30DD4
:10010000080030188A28AE0A2E08643A031D080039
:1001100030140800AE0B08003010AF0A08002F0C96
:10012000073982079C28A528AF28BA28CF28D928C4
:10013000E428E428AF010800A701A901AB01AC0144
:100140002D142E08A800AA000800A701A901AB01E0
:10015000AC012D142E08A800643CAA0008006430ED
:10016000A800AA002D10AB01AC012E08643CA7002A
:10017000A90008002D10AB01AC012E08323C031C75
:10018000C8282E08A700A9003230A800AA0008003D
:100190002E08A800AA003230A700A9000800A70175
:1001A000A901A801AA012D102E08AB00643CAC00E7
:1001B00008003230A700A9003330A800AA002D1093
:1001C0002E08AB00AC000800A701A901A803AA03F0
:1001D0002E08031DED28AB01AC0173083F3928023E
:1001E0000318FD2873083F39A80073083F392B0214
:1001F0000318FD2873083F39AB0072083F392A0203
:100200000318080072083F39AA0072083F392C020F
:100210000318080072083F39AC0008002000C03005
:1002200095000800A50A2508123C031CA501A001A1
:10023000A101A201CB21D3212508031D2F2967216C
:10024000A60A2D1823144421A60A2508123A0319D8
:10025000B2212D08F8392404A400D721080025086C
:100260000139031923294F30F900F90B35292508E5
:1002700029200139031D4029B221A60A67212D2911
:100280008021A60A99212D290830F9004C29A60AB7
:100290000310A20C0310A00C26082702031CA017B1
:1002A00026082902031CA21726082802031CA013F3
:1002B00026082A02031CA21326082B020319A017E2
:1002C00026082C020319A217F90B47290800260853
:1002D0002702031C211626082902031C21172608C1
:1002E0002802031C211226082A02031C21132608B7
:1002F0002B020319211626082C02031921170800C6
:1003000026082702031C211426082902031C211594
:1003100026082802031C211026082A02031C21118A
:1003200026082B020319211426082C020319211573
:10033000080026082702031CA11626082902031C10
:10034000A11726082802031CA11226082A02031C52
:10035000A11326082B020319A11626082C02031943
:10036000A117080026082702031CA1142608290249
:10037000031CA11526082802031CA11026082A0226
:10038000031CA11126082B020319A11426082C0214
:100390000319A115080025082920FE39A300250806
:1003A0003D20A400080025081520A60008000C1216
:1003B0008C128C110830F900A00C03180C168C1646
:1003C0008C120C12F90BDC290830F900A10C03186F
:1003D0000C168C168C12F90BE6290830F900A20CC9
:1003E00003180C168C168C120C12F90BEF290C1238
:1003F0000830F900A30C03180C168C168C120C1282
:10040000F90BFA290830F900A40C03180C168C1605
:0C0410008C120C12F90B042A8C15080049
:020000040001F9
:02000E00A73910
:02001000FF3FB0
:00000001FF
